{
  "contractName": "GreenHydrogenCredits",
  "abi": [
    {
      "anonymous": false,
      "inputs": [
        {
          "indexed": false,
          "internalType": "uint256",
          "name": "id",
          "type": "uint256"
        },
        {
          "indexed": false,
          "internalType": "address",
          "name": "owner",
          "type": "address"
        }
      ],
      "name": "CreditIssued",
      "type": "event"
    },
    {
      "anonymous": false,
      "inputs": [
        {
          "indexed": false,
          "internalType": "uint256",
          "name": "id",
          "type": "uint256"
        },
        {
          "indexed": false,
          "internalType": "address",
          "name": "retiredBy",
          "type": "address"
        }
      ],
      "name": "CreditRetired",
      "type": "event"
    },
    {
      "anonymous": false,
      "inputs": [
        {
          "indexed": false,
          "internalType": "uint256",
          "name": "id",
          "type": "uint256"
        },
        {
          "indexed": false,
          "internalType": "address",
          "name": "from",
          "type": "address"
        },
        {
          "indexed": false,
          "internalType": "address",
          "name": "to",
          "type": "address"
        }
      ],
      "name": "CreditTransferred",
      "type": "event"
    },
    {
      "inputs": [],
      "name": "creditCount",
      "outputs": [
        {
          "internalType": "uint256",
          "name": "",
          "type": "uint256"
        }
      ],
      "stateMutability": "view",
      "type": "function",
      "constant": true
    },
    {
      "inputs": [
        {
          "internalType": "uint256",
          "name": "",
          "type": "uint256"
        }
      ],
      "name": "credits",
      "outputs": [
        {
          "internalType": "uint256",
          "name": "id",
          "type": "uint256"
        },
        {
          "internalType": "address",
          "name": "owner",
          "type": "address"
        },
        {
          "internalType": "bool",
          "name": "retired",
          "type": "bool"
        }
      ],
      "stateMutability": "view",
      "type": "function",
      "constant": true
    },
    {
      "inputs": [
        {
          "internalType": "address",
          "name": "_owner",
          "type": "address"
        },
        {
          "internalType": "uint256",
          "name": "_amount",
          "type": "uint256"
        }
      ],
      "name": "issueCredits",
      "outputs": [],
      "stateMutability": "nonpayable",
      "type": "function"
    },
    {
      "inputs": [
        {
          "internalType": "uint256",
          "name": "_id",
          "type": "uint256"
        },
        {
          "internalType": "address",
          "name": "_to",
          "type": "address"
        }
      ],
      "name": "transferCredit",
      "outputs": [],
      "stateMutability": "nonpayable",
      "type": "function"
    },
    {
      "inputs": [
        {
          "internalType": "uint256",
          "name": "_id",
          "type": "uint256"
        }
      ],
      "name": "retireCredit",
      "outputs": [],
      "stateMutability": "nonpayable",
      "type": "function"
    }
  ],
  "bytecode": "0x60806040525f8055348015610012575f80fd5b50610958806100205f395ff3fe608060405234801561000f575f80fd5b5060043610610055575f3560e01c8063036a1c22146100595780630df3a1e01461008b57806331b00f7a146100a757806372b8030f146100c3578063eb899eeb146100e1575b5f80fd5b610073600480360381019061006e91906105eb565b6100fd565b6040516100829392919061067e565b60405180910390f35b6100a560048036038101906100a091906106dd565b61014f565b005b6100c160048036038101906100bc919061071b565b61031b565b005b6100cb610444565b6040516100d89190610759565b60405180910390f35b6100fb60048036038101906100f691906105eb565b610449565b005b6001602052805f5260405f205f91509050805f015490806001015f9054906101000a900473ffffffffffffffffffffffffffffffffffffffff16908060010160149054906101000a900460ff16905083565b3373ffffffffffffffffffffffffffffffffffffffff1660015f8481526020019081526020015f206001015f9054906101000a900473ffffffffffffffffffffffffffffffffffffffff1673ffffffffffffffffffffffffffffffffffffffff16146101f0576040517f08c379a00000000000000000000000000000000000000000000000000000000081526004016101e7906107cc565b60405180910390fd5b60015f8381526020019081526020015f2060010160149054906101000a900460ff1615610252576040517f08c379a000000000000000000000000000000000000000000000000000000000815260040161024990610834565b60405180910390fd5b5f60015f8481526020019081526020015f206001015f9054906101000a900473ffffffffffffffffffffffffffffffffffffffff1690508160015f8581526020019081526020015f206001015f6101000a81548173ffffffffffffffffffffffffffffffffffffffff021916908373ffffffffffffffffffffffffffffffffffffffff1602179055507f7498bf43d4148a03a165d093fcadc813f1a344a5f983812a2777c01f4dc2f0d683828460405161030e93929190610852565b60405180910390a1505050565b5f5b8181101561043f575f80815480929190610336906108b4565b919050555060405180606001604052805f5481526020018473ffffffffffffffffffffffffffffffffffffffff1681526020015f151581525060015f805481526020019081526020015f205f820151815f01556020820151816001015f6101000a81548173ffffffffffffffffffffffffffffffffffffffff021916908373ffffffffffffffffffffffffffffffffffffffff16021790555060408201518160010160146101000a81548160ff0219169083151502179055509050507f9411640525281b98a1ce0a7523697265fe74f3abe4b0b7e7fa9bbe8a28f390105f54846040516104249291906108fb565b60405180910390a18080610437906108b4565b91505061031d565b505050565b5f5481565b3373ffffffffffffffffffffffffffffffffffffffff1660015f8381526020019081526020015f206001015f9054906101000a900473ffffffffffffffffffffffffffffffffffffffff1673ffffffffffffffffffffffffffffffffffffffff16146104ea576040517f08c379a00000000000000000000000000000000000000000000000000000000081526004016104e1906107cc565b60405180910390fd5b60015f8281526020019081526020015f2060010160149054906101000a900460ff161561054c576040517f08c379a000000000000000000000000000000000000000000000000000000000815260040161054390610834565b60405180910390fd5b6001805f8381526020019081526020015f2060010160146101000a81548160ff0219169083151502179055507fa0f88bdc93ff6217657196ec633234f6709c7e841f6bfc701d62861f30e40f0c81336040516105a99291906108fb565b60405180910390a150565b5f80fd5b5f819050919050565b6105ca816105b8565b81146105d4575f80fd5b50565b5f813590506105e5816105c1565b92915050565b5f60208284031215610600576105ff6105b4565b5b5f61060d848285016105d7565b91505092915050565b61061f816105b8565b82525050565b5f73ffffffffffffffffffffffffffffffffffffffff82169050919050565b5f61064e82610625565b9050919050565b61065e81610644565b82525050565b5f8115159050919050565b61067881610664565b82525050565b5f6060820190506106915f830186610616565b61069e6020830185610655565b6106ab604083018461066f565b949350505050565b6106bc81610644565b81146106c6575f80fd5b50565b5f813590506106d7816106b3565b92915050565b5f80604083850312156106f3576106f26105b4565b5b5f610700858286016105d7565b9250506020610711858286016106c9565b9150509250929050565b5f8060408385031215610731576107306105b4565b5b5f61073e858286016106c9565b925050602061074f858286016105d7565b9150509250929050565b5f60208201905061076c5f830184610616565b92915050565b5f82825260208201905092915050565b7f4e6f74206f776e657200000000000000000000000000000000000000000000005f82015250565b5f6107b6600983610772565b91506107c182610782565b602082019050919050565b5f6020820190508181035f8301526107e3816107aa565b9050919050565b7f416c7265616479207265746972656400000000000000000000000000000000005f82015250565b5f61081e600f83610772565b9150610829826107ea565b602082019050919050565b5f6020820190508181035f83015261084b81610812565b9050919050565b5f6060820190506108655f830186610616565b6108726020830185610655565b61087f6040830184610655565b949350505050565b7f4e487b71000000000000000000000000000000000000000000000000000000005f52601160045260245ffd5b5f6108be826105b8565b91507fffffffffffffffffffffffffffffffffffffffffffffffffffffffffffffffff82036108f0576108ef610887565b5b600182019050919050565b5f60408201905061090e5f830185610616565b61091b6020830184610655565b939250505056fea2646970667358221220b9dcbbaba28da49929d6d110305a01fa5bb18093dbc1a7abf4ef9844b2d9356564736f6c63430008150033",
  "immutableReferences": {},
  "source": "// SPDX-License-Identifier: MIT\r\npragma solidity ^0.8.0;\r\n\r\ncontract GreenHydrogenCredits {\r\n    uint public creditCount = 0;\r\n\r\n    struct Credit {\r\n        uint id;\r\n        address owner;\r\n        bool retired;\r\n    }\r\n\r\n    mapping(uint => Credit) public credits;\r\n\r\n    event CreditIssued(uint id, address owner);\r\n    event CreditTransferred(uint id, address from, address to);\r\n    event CreditRetired(uint id, address retiredBy);\r\n\r\n    function issueCredits(address _owner, uint _amount) public {\r\n    for (uint i = 0; i < _amount; i++) {\r\n        creditCount++;\r\n        credits[creditCount] = Credit(creditCount, _owner, false);\r\n        emit CreditIssued(creditCount, _owner);\r\n    }\r\n}\r\n\r\n    function transferCredit(uint _id, address _to) public {\r\n        require(credits[_id].owner == msg.sender, \"Not owner\");\r\n        require(!credits[_id].retired, \"Already retired\");\r\n        address prevOwner = credits[_id].owner;\r\n        credits[_id].owner = _to;\r\n        emit CreditTransferred(_id, prevOwner, _to);\r\n    }\r\n\r\n    function retireCredit(uint _id) public {\r\n        require(credits[_id].owner == msg.sender, \"Not owner\");\r\n        require(!credits[_id].retired, \"Already retired\");\r\n        credits[_id].retired = true;\r\n        emit CreditRetired(_id, msg.sender);\r\n    }\r\n}",
  "sourcePath": "D:\\DAU_MTech\\hackathon\\green-hydrogen\\contracts\\GreenHydrogenCredit.sol",
  "compiler": {
    "name": "solc",
    "version": "0.8.21+commit.d9974bed.Emscripten.clang"
  },
  "schemaVersion": "3.4.16",
  "updatedAt": "2025-08-30T01:40:27.015Z",
  "networkType": "ethereum",
  "devdoc": {
    "kind": "dev",
    "methods": {},
    "version": 1
  },
  "userdoc": {
    "kind": "user",
    "methods": {},
    "version": 1
  }
}