{
  "contractName": "HydrogenCredit",
  "abi": [
    {
      "inputs": [
        {
          "internalType": "string",
          "name": "name",
          "type": "string"
        },
        {
          "internalType": "string",
          "name": "symbol",
          "type": "string"
        }
      ],
      "stateMutability": "nonpayable",
      "type": "constructor"
    },
    {
      "inputs": [],
      "name": "AccessControlBadConfirmation",
      "type": "error"
    },
    {
      "inputs": [
        {
          "internalType": "address",
          "name": "account",
          "type": "address"
        },
        {
          "internalType": "bytes32",
          "name": "neededRole",
          "type": "bytes32"
        }
      ],
      "name": "AccessControlUnauthorizedAccount",
      "type": "error"
    },
    {
      "inputs": [
        {
          "internalType": "address",
          "name": "spender",
          "type": "address"
        },
        {
          "internalType": "uint256",
          "name": "allowance",
          "type": "uint256"
        },
        {
          "internalType": "uint256",
          "name": "needed",
          "type": "uint256"
        }
      ],
      "name": "ERC20InsufficientAllowance",
      "type": "error"
    },
    {
      "inputs": [
        {
          "internalType": "address",
          "name": "sender",
          "type": "address"
        },
        {
          "internalType": "uint256",
          "name": "balance",
          "type": "uint256"
        },
        {
          "internalType": "uint256",
          "name": "needed",
          "type": "uint256"
        }
      ],
      "name": "ERC20InsufficientBalance",
      "type": "error"
    },
    {
      "inputs": [
        {
          "internalType": "address",
          "name": "approver",
          "type": "address"
        }
      ],
      "name": "ERC20InvalidApprover",
      "type": "error"
    },
    {
      "inputs": [
        {
          "internalType": "address",
          "name": "receiver",
          "type": "address"
        }
      ],
      "name": "ERC20InvalidReceiver",
      "type": "error"
    },
    {
      "inputs": [
        {
          "internalType": "address",
          "name": "sender",
          "type": "address"
        }
      ],
      "name": "ERC20InvalidSender",
      "type": "error"
    },
    {
      "inputs": [
        {
          "internalType": "address",
          "name": "spender",
          "type": "address"
        }
      ],
      "name": "ERC20InvalidSpender",
      "type": "error"
    },
    {
      "inputs": [],
      "name": "EnforcedPause",
      "type": "error"
    },
    {
      "inputs": [],
      "name": "ExpectedPause",
      "type": "error"
    },
    {
      "anonymous": false,
      "inputs": [
        {
          "indexed": true,
          "internalType": "address",
          "name": "owner",
          "type": "address"
        },
        {
          "indexed": true,
          "internalType": "address",
          "name": "spender",
          "type": "address"
        },
        {
          "indexed": false,
          "internalType": "uint256",
          "name": "value",
          "type": "uint256"
        }
      ],
      "name": "Approval",
      "type": "event"
    },
    {
      "anonymous": false,
      "inputs": [
        {
          "indexed": true,
          "internalType": "uint256",
          "name": "batchId",
          "type": "uint256"
        },
        {
          "indexed": true,
          "internalType": "address",
          "name": "recipient",
          "type": "address"
        },
        {
          "indexed": false,
          "internalType": "uint256",
          "name": "amount",
          "type": "uint256"
        },
        {
          "indexed": false,
          "internalType": "string",
          "name": "facility",
          "type": "string"
        },
        {
          "indexed": false,
          "internalType": "uint256",
          "name": "hydrogenAmount",
          "type": "uint256"
        }
      ],
      "name": "CreditIssued",
      "type": "event"
    },
    {
      "anonymous": false,
      "inputs": [
        {
          "indexed": true,
          "internalType": "uint256",
          "name": "batchId",
          "type": "uint256"
        },
        {
          "indexed": true,
          "internalType": "address",
          "name": "retiree",
          "type": "address"
        },
        {
          "indexed": false,
          "internalType": "uint256",
          "name": "amount",
          "type": "uint256"
        }
      ],
      "name": "CreditRetired",
      "type": "event"
    },
    {
      "anonymous": false,
      "inputs": [
        {
          "indexed": false,
          "internalType": "address",
          "name": "account",
          "type": "address"
        }
      ],
      "name": "Paused",
      "type": "event"
    },
    {
      "anonymous": false,
      "inputs": [
        {
          "indexed": true,
          "internalType": "bytes32",
          "name": "role",
          "type": "bytes32"
        },
        {
          "indexed": true,
          "internalType": "bytes32",
          "name": "previousAdminRole",
          "type": "bytes32"
        },
        {
          "indexed": true,
          "internalType": "bytes32",
          "name": "newAdminRole",
          "type": "bytes32"
        }
      ],
      "name": "RoleAdminChanged",
      "type": "event"
    },
    {
      "anonymous": false,
      "inputs": [
        {
          "indexed": true,
          "internalType": "bytes32",
          "name": "role",
          "type": "bytes32"
        },
        {
          "indexed": true,
          "internalType": "address",
          "name": "account",
          "type": "address"
        },
        {
          "indexed": true,
          "internalType": "address",
          "name": "sender",
          "type": "address"
        }
      ],
      "name": "RoleGranted",
      "type": "event"
    },
    {
      "anonymous": false,
      "inputs": [
        {
          "indexed": true,
          "internalType": "bytes32",
          "name": "role",
          "type": "bytes32"
        },
        {
          "indexed": true,
          "internalType": "address",
          "name": "account",
          "type": "address"
        },
        {
          "indexed": true,
          "internalType": "address",
          "name": "sender",
          "type": "address"
        }
      ],
      "name": "RoleRevoked",
      "type": "event"
    },
    {
      "anonymous": false,
      "inputs": [
        {
          "indexed": true,
          "internalType": "address",
          "name": "from",
          "type": "address"
        },
        {
          "indexed": true,
          "internalType": "address",
          "name": "to",
          "type": "address"
        },
        {
          "indexed": false,
          "internalType": "uint256",
          "name": "value",
          "type": "uint256"
        }
      ],
      "name": "Transfer",
      "type": "event"
    },
    {
      "anonymous": false,
      "inputs": [
        {
          "indexed": false,
          "internalType": "address",
          "name": "account",
          "type": "address"
        }
      ],
      "name": "Unpaused",
      "type": "event"
    },
    {
      "inputs": [],
      "name": "CERTIFIER_ROLE",
      "outputs": [
        {
          "internalType": "bytes32",
          "name": "",
          "type": "bytes32"
        }
      ],
      "stateMutability": "view",
      "type": "function",
      "constant": true
    },
    {
      "inputs": [],
      "name": "DEFAULT_ADMIN_ROLE",
      "outputs": [
        {
          "internalType": "bytes32",
          "name": "",
          "type": "bytes32"
        }
      ],
      "stateMutability": "view",
      "type": "function",
      "constant": true
    },
    {
      "inputs": [],
      "name": "PAUSER_ROLE",
      "outputs": [
        {
          "internalType": "bytes32",
          "name": "",
          "type": "bytes32"
        }
      ],
      "stateMutability": "view",
      "type": "function",
      "constant": true
    },
    {
      "inputs": [
        {
          "internalType": "address",
          "name": "owner",
          "type": "address"
        },
        {
          "internalType": "address",
          "name": "spender",
          "type": "address"
        }
      ],
      "name": "allowance",
      "outputs": [
        {
          "internalType": "uint256",
          "name": "",
          "type": "uint256"
        }
      ],
      "stateMutability": "view",
      "type": "function",
      "constant": true
    },
    {
      "inputs": [
        {
          "internalType": "address",
          "name": "spender",
          "type": "address"
        },
        {
          "internalType": "uint256",
          "name": "value",
          "type": "uint256"
        }
      ],
      "name": "approve",
      "outputs": [
        {
          "internalType": "bool",
          "name": "",
          "type": "bool"
        }
      ],
      "stateMutability": "nonpayable",
      "type": "function"
    },
    {
      "inputs": [
        {
          "internalType": "address",
          "name": "account",
          "type": "address"
        }
      ],
      "name": "balanceOf",
      "outputs": [
        {
          "internalType": "uint256",
          "name": "",
          "type": "uint256"
        }
      ],
      "stateMutability": "view",
      "type": "function",
      "constant": true
    },
    {
      "inputs": [
        {
          "internalType": "uint256",
          "name": "",
          "type": "uint256"
        }
      ],
      "name": "creditBatches",
      "outputs": [
        {
          "internalType": "uint256",
          "name": "id",
          "type": "uint256"
        },
        {
          "internalType": "string",
          "name": "productionFacility",
          "type": "string"
        },
        {
          "internalType": "uint256",
          "name": "hydrogenAmount",
          "type": "uint256"
        },
        {
          "internalType": "uint256",
          "name": "timestamp",
          "type": "uint256"
        },
        {
          "internalType": "string",
          "name": "verificationHash",
          "type": "string"
        },
        {
          "internalType": "bool",
          "name": "isRetired",
          "type": "bool"
        },
        {
          "internalType": "address",
          "name": "certifier",
          "type": "address"
        }
      ],
      "stateMutability": "view",
      "type": "function",
      "constant": true
    },
    {
      "inputs": [],
      "name": "decimals",
      "outputs": [
        {
          "internalType": "uint8",
          "name": "",
          "type": "uint8"
        }
      ],
      "stateMutability": "view",
      "type": "function",
      "constant": true
    },
    {
      "inputs": [
        {
          "internalType": "bytes32",
          "name": "role",
          "type": "bytes32"
        }
      ],
      "name": "getRoleAdmin",
      "outputs": [
        {
          "internalType": "bytes32",
          "name": "",
          "type": "bytes32"
        }
      ],
      "stateMutability": "view",
      "type": "function",
      "constant": true
    },
    {
      "inputs": [
        {
          "internalType": "bytes32",
          "name": "role",
          "type": "bytes32"
        },
        {
          "internalType": "address",
          "name": "account",
          "type": "address"
        }
      ],
      "name": "grantRole",
      "outputs": [],
      "stateMutability": "nonpayable",
      "type": "function"
    },
    {
      "inputs": [
        {
          "internalType": "bytes32",
          "name": "role",
          "type": "bytes32"
        },
        {
          "internalType": "address",
          "name": "account",
          "type": "address"
        }
      ],
      "name": "hasRole",
      "outputs": [
        {
          "internalType": "bool",
          "name": "",
          "type": "bool"
        }
      ],
      "stateMutability": "view",
      "type": "function",
      "constant": true
    },
    {
      "inputs": [],
      "name": "name",
      "outputs": [
        {
          "internalType": "string",
          "name": "",
          "type": "string"
        }
      ],
      "stateMutability": "view",
      "type": "function",
      "constant": true
    },
    {
      "inputs": [],
      "name": "nextBatchId",
      "outputs": [
        {
          "internalType": "uint256",
          "name": "",
          "type": "uint256"
        }
      ],
      "stateMutability": "view",
      "type": "function",
      "constant": true
    },
    {
      "inputs": [],
      "name": "paused",
      "outputs": [
        {
          "internalType": "bool",
          "name": "",
          "type": "bool"
        }
      ],
      "stateMutability": "view",
      "type": "function",
      "constant": true
    },
    {
      "inputs": [
        {
          "internalType": "bytes32",
          "name": "role",
          "type": "bytes32"
        },
        {
          "internalType": "address",
          "name": "callerConfirmation",
          "type": "address"
        }
      ],
      "name": "renounceRole",
      "outputs": [],
      "stateMutability": "nonpayable",
      "type": "function"
    },
    {
      "inputs": [
        {
          "internalType": "bytes32",
          "name": "role",
          "type": "bytes32"
        },
        {
          "internalType": "address",
          "name": "account",
          "type": "address"
        }
      ],
      "name": "revokeRole",
      "outputs": [],
      "stateMutability": "nonpayable",
      "type": "function"
    },
    {
      "inputs": [],
      "name": "symbol",
      "outputs": [
        {
          "internalType": "string",
          "name": "",
          "type": "string"
        }
      ],
      "stateMutability": "view",
      "type": "function",
      "constant": true
    },
    {
      "inputs": [],
      "name": "totalHydrogenProduced",
      "outputs": [
        {
          "internalType": "uint256",
          "name": "",
          "type": "uint256"
        }
      ],
      "stateMutability": "view",
      "type": "function",
      "constant": true
    },
    {
      "inputs": [],
      "name": "totalSupply",
      "outputs": [
        {
          "internalType": "uint256",
          "name": "",
          "type": "uint256"
        }
      ],
      "stateMutability": "view",
      "type": "function",
      "constant": true
    },
    {
      "inputs": [
        {
          "internalType": "address",
          "name": "to",
          "type": "address"
        },
        {
          "internalType": "uint256",
          "name": "value",
          "type": "uint256"
        }
      ],
      "name": "transfer",
      "outputs": [
        {
          "internalType": "bool",
          "name": "",
          "type": "bool"
        }
      ],
      "stateMutability": "nonpayable",
      "type": "function"
    },
    {
      "inputs": [
        {
          "internalType": "address",
          "name": "from",
          "type": "address"
        },
        {
          "internalType": "address",
          "name": "to",
          "type": "address"
        },
        {
          "internalType": "uint256",
          "name": "value",
          "type": "uint256"
        }
      ],
      "name": "transferFrom",
      "outputs": [
        {
          "internalType": "bool",
          "name": "",
          "type": "bool"
        }
      ],
      "stateMutability": "nonpayable",
      "type": "function"
    },
    {
      "inputs": [
        {
          "internalType": "address",
          "name": "",
          "type": "address"
        },
        {
          "internalType": "uint256",
          "name": "",
          "type": "uint256"
        }
      ],
      "name": "userCredits",
      "outputs": [
        {
          "internalType": "uint256",
          "name": "",
          "type": "uint256"
        }
      ],
      "stateMutability": "view",
      "type": "function",
      "constant": true
    },
    {
      "inputs": [
        {
          "internalType": "address",
          "name": "to",
          "type": "address"
        },
        {
          "internalType": "uint256",
          "name": "amount",
          "type": "uint256"
        },
        {
          "internalType": "string",
          "name": "productionFacility",
          "type": "string"
        },
        {
          "internalType": "uint256",
          "name": "hydrogenAmount",
          "type": "uint256"
        },
        {
          "internalType": "string",
          "name": "verificationHash",
          "type": "string"
        }
      ],
      "name": "issueCredits",
      "outputs": [],
      "stateMutability": "nonpayable",
      "type": "function"
    },
    {
      "inputs": [
        {
          "internalType": "uint256",
          "name": "batchId",
          "type": "uint256"
        },
        {
          "internalType": "uint256",
          "name": "amount",
          "type": "uint256"
        }
      ],
      "name": "retireCredits",
      "outputs": [],
      "stateMutability": "nonpayable",
      "type": "function"
    },
    {
      "inputs": [
        {
          "internalType": "uint256",
          "name": "batchId",
          "type": "uint256"
        }
      ],
      "name": "getCreditBatch",
      "outputs": [
        {
          "components": [
            {
              "internalType": "uint256",
              "name": "id",
              "type": "uint256"
            },
            {
              "internalType": "string",
              "name": "productionFacility",
              "type": "string"
            },
            {
              "internalType": "uint256",
              "name": "hydrogenAmount",
              "type": "uint256"
            },
            {
              "internalType": "uint256",
              "name": "timestamp",
              "type": "uint256"
            },
            {
              "internalType": "string",
              "name": "verificationHash",
              "type": "string"
            },
            {
              "internalType": "bool",
              "name": "isRetired",
              "type": "bool"
            },
            {
              "internalType": "address",
              "name": "certifier",
              "type": "address"
            }
          ],
          "internalType": "struct HydrogenCredit.CreditBatch",
          "name": "",
          "type": "tuple"
        }
      ],
      "stateMutability": "view",
      "type": "function",
      "constant": true
    },
    {
      "inputs": [
        {
          "internalType": "address",
          "name": "user",
          "type": "address"
        }
      ],
      "name": "getUserCredits",
      "outputs": [
        {
          "internalType": "uint256[]",
          "name": "",
          "type": "uint256[]"
        }
      ],
      "stateMutability": "view",
      "type": "function",
      "constant": true
    },
    {
      "inputs": [],
      "name": "pause",
      "outputs": [],
      "stateMutability": "nonpayable",
      "type": "function"
    },
    {
      "inputs": [],
      "name": "unpause",
      "outputs": [],
      "stateMutability": "nonpayable",
      "type": "function"
    },
    {
      "inputs": [
        {
          "internalType": "bytes4",
          "name": "interfaceId",
          "type": "bytes4"
        }
      ],
      "name": "supportsInterface",
      "outputs": [
        {
          "internalType": "bool",
          "name": "",
          "type": "bool"
        }
      ],
      "stateMutability": "view",
      "type": "function",
      "constant": true
    }
  ],
  "bytecode": "0x608060405234801562000010575f80fd5b5060405162001ded38038062001ded833981016040819052620000339162000239565b818160036200004383826200032b565b5060046200005282826200032b565b506200006391505f905033620000cb565b50620000907f65cb1d8422cdf0328f26b49e42e9f4524474c431da623cbe0ea455f1b67c9f7733620000cb565b50620000bd7f65d7a28e3265b37a6474929f336521b332c1681b933f6cb9f3376673440d862a33620000cb565b5050600160095550620003f3565b5f8281526005602090815260408083206001600160a01b038516845290915281205460ff1662000172575f8381526005602090815260408083206001600160a01b03861684529091529020805460ff19166001179055620001293390565b6001600160a01b0316826001600160a01b0316847f2f8788117e7eff1d82e926ec794901d17c78024a50270940304540a733656f0d60405160405180910390a450600162000175565b505f5b92915050565b634e487b7160e01b5f52604160045260245ffd5b5f82601f8301126200019f575f80fd5b81516001600160401b0380821115620001bc57620001bc6200017b565b604051601f8301601f19908116603f01168101908282118183101715620001e757620001e76200017b565b8160405283815260209250868385880101111562000203575f80fd5b5f91505b8382101562000226578582018301518183018401529082019062000207565b5f93810190920192909252949350505050565b5f80604083850312156200024b575f80fd5b82516001600160401b038082111562000262575f80fd5b62000270868387016200018f565b9350602085015191508082111562000286575f80fd5b5062000295858286016200018f565b9150509250929050565b600181811c90821680620002b457607f821691505b602082108103620002d357634e487b7160e01b5f52602260045260245ffd5b50919050565b601f82111562000326575f81815260208120601f850160051c81016020861015620003015750805b601f850160051c820191505b8181101562000322578281556001016200030d565b5050505b505050565b81516001600160401b038111156200034757620003476200017b565b6200035f816200035884546200029f565b84620002d9565b602080601f83116001811462000395575f84156200037d5750858301515b5f19600386901b1c1916600185901b17855562000322565b5f85815260208120601f198616915b82811015620003c557888601518255948401946001909101908401620003a4565b5085821015620003e357878501515f19600388901b60f8161c191681555b5050505050600190811b01905550565b6119ec80620004015f395ff3fe608060405234801561000f575f80fd5b50600436106101c6575f3560e01c806370a08231116100fe57806395d89b411161009e578063d547741f1161006e578063d547741f146103e3578063dd62ed3e146103f6578063e3c0652f1461042e578063e63ab1e914610437575f80fd5b806395d89b41146103ae578063a217fddf146103b6578063a9059cbb146103bd578063c8043bb4146103d0575f80fd5b80638456cb59116100d95780638456cb59146103645780638462a7f81461036c57806384ba2da01461037557806391d148541461039b575f80fd5b806370a08231146102fc5780637beaddeb1461032457806381b26dda14610344575f80fd5b80632f2ff15d116101695780633ea0fb13116101445780633ea0fb13146102af5780633f4ba83a146102c25780635c975abb146102ca57806369d0b517146102d5575f80fd5b80632f2ff15d14610278578063313ce5671461028d57806336568abe1461029c575f80fd5b806317a483a3116101a457806317a483a31461021a57806318160ddd1461023b57806323b872dd14610243578063248a9ca314610256575f80fd5b806301ffc9a7146101ca57806306fdde03146101f2578063095ea7b314610207575b5f80fd5b6101dd6101d836600461142b565b61045e565b60405190151581526020015b60405180910390f35b6101fa61046e565b6040516101e9919061149c565b6101dd6102153660046114c9565b6104fe565b61022d6102283660046114c9565b610515565b6040519081526020016101e9565b60025461022d565b6101dd6102513660046114f1565b610540565b61022d61026436600461152a565b5f9081526005602052604090206001015490565b61028b610286366004611541565b610563565b005b604051601281526020016101e9565b61028b6102aa366004611541565b61058d565b61028b6102bd36600461156b565b6105c5565b61028b61073b565b60065460ff166101dd565b61022d7f65cb1d8422cdf0328f26b49e42e9f4524474c431da623cbe0ea455f1b67c9f7781565b61022d61030a36600461158b565b6001600160a01b03165f9081526020819052604090205490565b61033761033236600461152a565b610770565b6040516101e991906115a4565b61035761035236600461158b565b61098d565b6040516101e99190611629565b61028b6109f6565b61022d60095481565b61038861038336600461152a565b610a28565b6040516101e9979695949392919061166c565b6101dd6103a9366004611541565b610b7c565b6101fa610ba6565b61022d5f81565b6101dd6103cb3660046114c9565b610bb5565b61028b6103de366004611764565b610bc2565b61028b6103f1366004611541565b610e78565b61022d6104043660046117e6565b6001600160a01b039182165f90815260016020908152604080832093909416825291909152205490565b61022d600a5481565b61022d7f65d7a28e3265b37a6474929f336521b332c1681b933f6cb9f3376673440d862a81565b5f61046882610e9c565b92915050565b60606003805461047d9061180e565b80601f01602080910402602001604051908101604052809291908181526020018280546104a99061180e565b80156104f45780601f106104cb576101008083540402835291602001916104f4565b820191905f5260205f20905b8154815290600101906020018083116104d757829003601f168201915b5050505050905090565b5f3361050b818585610ed0565b5060019392505050565b6008602052815f5260405f20818154811061052e575f80fd5b905f5260205f20015f91509150505481565b5f3361054d858285610edd565b610558858585610f53565b506001949350505050565b5f8281526005602052604090206001015461057d81610fb0565b6105878383610fba565b50505050565b6001600160a01b03811633146105b65760405163334bd91960e11b815260040160405180910390fd5b6105c0828261104b565b505050565b6105cd6110b6565b5f8281526007602052604081205490036106255760405162461bcd60e51b815260206004820152601460248201527310985d18da08191bd95cc81b9bdd08195e1a5cdd60621b60448201526064015b60405180910390fd5b5f8281526007602052604090206005015460ff16156106865760405162461bcd60e51b815260206004820152601760248201527f4372656469747320616c72656164792072657469726564000000000000000000604482015260640161061c565b806106903361030a565b10156106d55760405162461bcd60e51b8152602060048201526014602482015273496e73756666696369656e742062616c616e636560601b604482015260640161061c565b5f828152600760205260409020600501805460ff191660011790556107006106fa3390565b826110dc565b604051818152339083907f480a76602f881eef8c7fd7402787f2e9065d323d5a6a120586b17a7b44c716ff9060200160405180910390a35050565b7f65d7a28e3265b37a6474929f336521b332c1681b933f6cb9f3376673440d862a61076581610fb0565b61076d611114565b50565b6107b66040518060e001604052805f8152602001606081526020015f81526020015f8152602001606081526020015f151581526020015f6001600160a01b031681525090565b5f8281526007602052604081205490036108095760405162461bcd60e51b815260206004820152601460248201527310985d18da08191bd95cc81b9bdd08195e1a5cdd60621b604482015260640161061c565b60075f8381526020019081526020015f206040518060e00160405290815f820154815260200160018201805461083e9061180e565b80601f016020809104026020016040519081016040528092919081815260200182805461086a9061180e565b80156108b55780601f1061088c576101008083540402835291602001916108b5565b820191905f5260205f20905b81548152906001019060200180831161089857829003601f168201915b5050505050815260200160028201548152602001600382015481526020016004820180546108e29061180e565b80601f016020809104026020016040519081016040528092919081815260200182805461090e9061180e565b80156109595780601f1061093057610100808354040283529160200191610959565b820191905f5260205f20905b81548152906001019060200180831161093c57829003601f168201915b50505091835250506005919091015460ff81161515602083015261010090046001600160a01b031660409091015292915050565b6001600160a01b0381165f908152600860209081526040918290208054835181840281018401909452808452606093928301828280156109ea57602002820191905f5260205f20905b8154815260200190600101908083116109d6575b50505050509050919050565b7f65d7a28e3265b37a6474929f336521b332c1681b933f6cb9f3376673440d862a610a2081610fb0565b61076d611166565b60076020525f908152604090208054600182018054919291610a499061180e565b80601f0160208091040260200160405190810160405280929190818152602001828054610a759061180e565b8015610ac05780601f10610a9757610100808354040283529160200191610ac0565b820191905f5260205f20905b815481529060010190602001808311610aa357829003601f168201915b505050505090806002015490806003015490806004018054610ae19061180e565b80601f0160208091040260200160405190810160405280929190818152602001828054610b0d9061180e565b8015610b585780601f10610b2f57610100808354040283529160200191610b58565b820191905f5260205f20905b815481529060010190602001808311610b3b57829003601f168201915b5050506005909301549192505060ff8116906001600160a01b036101009091041687565b5f9182526005602090815260408084206001600160a01b0393909316845291905290205460ff1690565b60606004805461047d9061180e565b5f3361050b818585610f53565b7f65cb1d8422cdf0328f26b49e42e9f4524474c431da623cbe0ea455f1b67c9f77610bec81610fb0565b610bf46110b6565b6001600160a01b038616610c4a5760405162461bcd60e51b815260206004820152601960248201527f496e76616c696420726563697069656e74206164647265737300000000000000604482015260640161061c565b5f8511610c995760405162461bcd60e51b815260206004820152601d60248201527f416d6f756e74206d7573742062652067726561746572207468616e2030000000604482015260640161061c565b5f8311610cf75760405162461bcd60e51b815260206004820152602660248201527f487964726f67656e20616d6f756e74206d75737420626520677265617465722060448201526507468616e20360d41b606482015260840161061c565b600980545f9182610d078361185a565b9190505590506040518060e001604052808281526020018681526020018581526020014281526020018481526020015f15158152602001610d453390565b6001600160a01b031690525f82815260076020908152604090912082518155908201516001820190610d7790826118bf565b50604082015160028201556060820151600382015560808201516004820190610da090826118bf565b5060a0820151600591909101805460c0909301516001600160a81b0319909316911515610100600160a81b031916919091176101006001600160a01b039384160217905587165f9081526008602090815260408220805460018101825590835290822001829055600a8054869290610e1990849061197b565b90915550610e29905087876111a3565b866001600160a01b0316817f0a2259be67c002718de910a1fd8a50a0bbb336fafc9f3a9dede9dc07e7c3b114888888604051610e679392919061198e565b60405180910390a350505050505050565b5f82815260056020526040902060010154610e9281610fb0565b610587838361104b565b5f6001600160e01b03198216637965db0b60e01b148061046857506301ffc9a760e01b6001600160e01b0319831614610468565b6105c083838360016111d7565b6001600160a01b038381165f908152600160209081526040808320938616835292905220545f198110156105875781811015610f4557604051637dc7a0d960e11b81526001600160a01b0384166004820152602481018290526044810183905260640161061c565b61058784848484035f6111d7565b6001600160a01b038316610f7c57604051634b637e8f60e11b81525f600482015260240161061c565b6001600160a01b038216610fa55760405163ec442f0560e01b81525f600482015260240161061c565b6105c08383836112a9565b61076d81336113cf565b5f610fc58383610b7c565b611044575f8381526005602090815260408083206001600160a01b03861684529091529020805460ff19166001179055610ffc3390565b6001600160a01b0316826001600160a01b0316847f2f8788117e7eff1d82e926ec794901d17c78024a50270940304540a733656f0d60405160405180910390a4506001610468565b505f610468565b5f6110568383610b7c565b15611044575f8381526005602090815260408083206001600160a01b0386168085529252808320805460ff1916905551339286917ff6391f5c32d9c69d2a47ea670b442974b53935d1edc7fd64eb21e047a839171b9190a4506001610468565b60065460ff16156110da5760405163d93c066560e01b815260040160405180910390fd5b565b6001600160a01b03821661110557604051634b637e8f60e11b81525f600482015260240161061c565b611110825f836112a9565b5050565b61111c611408565b6006805460ff191690557f5db9ee0a495bf2e6ff9c91a7834c1ba4fdd244a5e8aa4e537bd38aeae4b073aa335b6040516001600160a01b03909116815260200160405180910390a1565b61116e6110b6565b6006805460ff191660011790557f62e78cea01bee320cd4e420270b5ea74000d11b0c9f74754ebdbfc544b05a2586111493390565b6001600160a01b0382166111cc5760405163ec442f0560e01b81525f600482015260240161061c565b6111105f83836112a9565b6001600160a01b0384166112005760405163e602df0560e01b81525f600482015260240161061c565b6001600160a01b03831661122957604051634a1406b160e11b81525f600482015260240161061c565b6001600160a01b038085165f908152600160209081526040808320938716835292905220829055801561058757826001600160a01b0316846001600160a01b03167f8c5be1e5ebec7d5bd14f71427d1e84f3dd0314c0f7b2291e5b200ac8c7c3b9258460405161129b91815260200190565b60405180910390a350505050565b6001600160a01b0383166112d3578060025f8282546112c8919061197b565b909155506113439050565b6001600160a01b0383165f90815260208190526040902054818110156113255760405163391434e360e21b81526001600160a01b0385166004820152602481018290526044810183905260640161061c565b6001600160a01b0384165f9081526020819052604090209082900390555b6001600160a01b03821661135f5760028054829003905561137d565b6001600160a01b0382165f9081526020819052604090208054820190555b816001600160a01b0316836001600160a01b03167fddf252ad1be2c89b69c2b068fc378daa952ba7f163c4a11628f55a4df523b3ef836040516113c291815260200190565b60405180910390a3505050565b6113d98282610b7c565b6111105760405163e2517d3f60e01b81526001600160a01b03821660048201526024810183905260440161061c565b60065460ff166110da57604051638dfc202b60e01b815260040160405180910390fd5b5f6020828403121561143b575f80fd5b81356001600160e01b031981168114611452575f80fd5b9392505050565b5f81518084525f5b8181101561147d57602081850181015186830182015201611461565b505f602082860101526020601f19601f83011685010191505092915050565b602081525f6114526020830184611459565b80356001600160a01b03811681146114c4575f80fd5b919050565b5f80604083850312156114da575f80fd5b6114e3836114ae565b946020939093013593505050565b5f805f60608486031215611503575f80fd5b61150c846114ae565b925061151a602085016114ae565b9150604084013590509250925092565b5f6020828403121561153a575f80fd5b5035919050565b5f8060408385031215611552575f80fd5b82359150611562602084016114ae565b90509250929050565b5f806040838503121561157c575f80fd5b50508035926020909101359150565b5f6020828403121561159b575f80fd5b611452826114ae565b60208152815160208201525f602083015160e060408401526115ca610100840182611459565b905060408401516060840152606084015160808401526080840151601f198483030160a08501526115fb8282611459565b60a0860151151560c086810191909152909501516001600160a01b031660e090940193909352509192915050565b602080825282518282018190525f9190848201906040850190845b8181101561166057835183529284019291840191600101611644565b50909695505050505050565b87815260e060208201525f61168460e0830189611459565b87604084015286606084015282810360808401526116a28187611459565b94151560a084015250506001600160a01b039190911660c09091015295945050505050565b634e487b7160e01b5f52604160045260245ffd5b5f82601f8301126116ea575f80fd5b813567ffffffffffffffff80821115611705576117056116c7565b604051601f8301601f19908116603f0116810190828211818310171561172d5761172d6116c7565b81604052838152866020858801011115611745575f80fd5b836020870160208301375f602085830101528094505050505092915050565b5f805f805f60a08688031215611778575f80fd5b611781866114ae565b945060208601359350604086013567ffffffffffffffff808211156117a4575f80fd5b6117b089838a016116db565b94506060880135935060808801359150808211156117cc575f80fd5b506117d9888289016116db565b9150509295509295909350565b5f80604083850312156117f7575f80fd5b611800836114ae565b9150611562602084016114ae565b600181811c9082168061182257607f821691505b60208210810361184057634e487b7160e01b5f52602260045260245ffd5b50919050565b634e487b7160e01b5f52601160045260245ffd5b5f6001820161186b5761186b611846565b5060010190565b601f8211156105c0575f81815260208120601f850160051c810160208610156118985750805b601f850160051c820191505b818110156118b7578281556001016118a4565b505050505050565b815167ffffffffffffffff8111156118d9576118d96116c7565b6118ed816118e7845461180e565b84611872565b602080601f831160018114611920575f84156119095750858301515b5f19600386901b1c1916600185901b1785556118b7565b5f85815260208120601f198616915b8281101561194e5788860151825594840194600190910190840161192f565b508582101561196b57878501515f19600388901b60f8161c191681555b5050505050600190811b01905550565b8082018082111561046857610468611846565b838152606060208201525f6119a66060830185611459565b905082604083015294935050505056fea264697066735822122063105ec5ca8ccdca0a520baaa2a5112a5231e014824b730c3fd1f3b1d26c315264736f6c63430008140033",
  "immutableReferences": {},
  "source": "// SPDX-License-Identifier: MIT\r\npragma solidity ^0.8.0;\r\n\r\nimport \"@openzeppelin/contracts/token/ERC20/ERC20.sol\";\r\nimport \"@openzeppelin/contracts/access/AccessControl.sol\";\r\nimport \"@openzeppelin/contracts/utils/Pausable.sol\";\r\n\r\ncontract HydrogenCredit is ERC20, AccessControl, Pausable {\r\n    bytes32 public constant CERTIFIER_ROLE = keccak256(\"CERTIFIER_ROLE\");\r\n    bytes32 public constant PAUSER_ROLE = keccak256(\"PAUSER_ROLE\");\r\n\r\n    struct CreditBatch {\r\n        uint256 id;\r\n        string productionFacility;\r\n        uint256 hydrogenAmount; // in kg\r\n        uint256 timestamp;\r\n        string verificationHash;\r\n        bool isRetired;\r\n        address certifier;\r\n    }\r\n\r\n    mapping(uint256 => CreditBatch) public creditBatches;\r\n    mapping(address => uint256[]) public userCredits;\r\n    uint256 public nextBatchId;\r\n    uint256 public totalHydrogenProduced;\r\n\r\n    event CreditIssued(\r\n        uint256 indexed batchId,\r\n        address indexed recipient,\r\n        uint256 amount,\r\n        string facility,\r\n        uint256 hydrogenAmount\r\n    );\r\n\r\n    event CreditRetired(\r\n        uint256 indexed batchId,\r\n        address indexed retiree,\r\n        uint256 amount\r\n    );\r\n\r\n    constructor(string memory name, string memory symbol) ERC20(name, symbol) {\r\n        // Grant roles using _grantRole (v5.x compatible)\r\n        _grantRole(DEFAULT_ADMIN_ROLE, _msgSender());\r\n        _grantRole(CERTIFIER_ROLE, _msgSender());\r\n        _grantRole(PAUSER_ROLE, _msgSender());\r\n        \r\n        nextBatchId = 1;\r\n    }\r\n\r\n    function issueCredits(\r\n        address to,\r\n        uint256 amount,\r\n        string memory productionFacility,\r\n        uint256 hydrogenAmount,\r\n        string memory verificationHash\r\n    ) public onlyRole(CERTIFIER_ROLE) whenNotPaused {\r\n        require(to != address(0), \"Invalid recipient address\");\r\n        require(amount > 0, \"Amount must be greater than 0\");\r\n        require(hydrogenAmount > 0, \"Hydrogen amount must be greater than 0\");\r\n\r\n        uint256 batchId = nextBatchId++;\r\n        \r\n        creditBatches[batchId] = CreditBatch({\r\n            id: batchId,\r\n            productionFacility: productionFacility,\r\n            hydrogenAmount: hydrogenAmount,\r\n            timestamp: block.timestamp,\r\n            verificationHash: verificationHash,\r\n            isRetired: false,\r\n            certifier: _msgSender()\r\n        });\r\n\r\n        userCredits[to].push(batchId);\r\n        totalHydrogenProduced += hydrogenAmount;\r\n\r\n        _mint(to, amount);\r\n\r\n        emit CreditIssued(batchId, to, amount, productionFacility, hydrogenAmount);\r\n    }\r\n\r\n    function retireCredits(uint256 batchId, uint256 amount) public whenNotPaused {\r\n        require(creditBatches[batchId].id != 0, \"Batch does not exist\");\r\n        require(!creditBatches[batchId].isRetired, \"Credits already retired\");\r\n        require(balanceOf(_msgSender()) >= amount, \"Insufficient balance\");\r\n\r\n        creditBatches[batchId].isRetired = true;\r\n        _burn(_msgSender(), amount);\r\n\r\n        emit CreditRetired(batchId, _msgSender(), amount);\r\n    }\r\n\r\n    function getCreditBatch(uint256 batchId) public view returns (CreditBatch memory) {\r\n        require(creditBatches[batchId].id != 0, \"Batch does not exist\");\r\n        return creditBatches[batchId];\r\n    }\r\n\r\n    function getUserCredits(address user) public view returns (uint256[] memory) {\r\n        return userCredits[user];\r\n    }\r\n\r\n    function pause() public onlyRole(PAUSER_ROLE) {\r\n        _pause();\r\n    }\r\n\r\n    function unpause() public onlyRole(PAUSER_ROLE) {\r\n        _unpause();\r\n    }\r\n\r\n    // Required override for AccessControl\r\n    function supportsInterface(bytes4 interfaceId) public view virtual override(AccessControl) returns (bool) {\r\n        return super.supportsInterface(interfaceId);\r\n    }\r\n}",
  "sourcePath": "I:\\HackOut\\Hackout_25-1\\HydrogenCreditTracker\\contracts\\HydrogenCredit.sol",
  "compiler": {
    "name": "solc",
    "version": "0.8.20+commit.a1b79de6.Emscripten.clang"
  },
  "schemaVersion": "3.4.16",
  "updatedAt": "2025-08-30T21:25:40.235Z",
  "networkType": "ethereum",
  "devdoc": {
    "errors": {
      "AccessControlBadConfirmation()": [
        {
          "details": "The caller of a function is not the expected one. NOTE: Don't confuse with {AccessControlUnauthorizedAccount}."
        }
      ],
      "AccessControlUnauthorizedAccount(address,bytes32)": [
        {
          "details": "The `account` is missing a role."
        }
      ],
      "ERC20InsufficientAllowance(address,uint256,uint256)": [
        {
          "details": "Indicates a failure with the `spender`s `allowance`. Used in transfers.",
          "params": {
            "allowance": "Amount of tokens a `spender` is allowed to operate with.",
            "needed": "Minimum amount required to perform a transfer.",
            "spender": "Address that may be allowed to operate on tokens without being their owner."
          }
        }
      ],
      "ERC20InsufficientBalance(address,uint256,uint256)": [
        {
          "details": "Indicates an error related to the current `balance` of a `sender`. Used in transfers.",
          "params": {
            "balance": "Current balance for the interacting account.",
            "needed": "Minimum amount required to perform a transfer.",
            "sender": "Address whose tokens are being transferred."
          }
        }
      ],
      "ERC20InvalidApprover(address)": [
        {
          "details": "Indicates a failure with the `approver` of a token to be approved. Used in approvals.",
          "params": {
            "approver": "Address initiating an approval operation."
          }
        }
      ],
      "ERC20InvalidReceiver(address)": [
        {
          "details": "Indicates a failure with the token `receiver`. Used in transfers.",
          "params": {
            "receiver": "Address to which tokens are being transferred."
          }
        }
      ],
      "ERC20InvalidSender(address)": [
        {
          "details": "Indicates a failure with the token `sender`. Used in transfers.",
          "params": {
            "sender": "Address whose tokens are being transferred."
          }
        }
      ],
      "ERC20InvalidSpender(address)": [
        {
          "details": "Indicates a failure with the `spender` to be approved. Used in approvals.",
          "params": {
            "spender": "Address that may be allowed to operate on tokens without being their owner."
          }
        }
      ],
      "EnforcedPause()": [
        {
          "details": "The operation failed because the contract is paused."
        }
      ],
      "ExpectedPause()": [
        {
          "details": "The operation failed because the contract is not paused."
        }
      ]
    },
    "events": {
      "Approval(address,address,uint256)": {
        "details": "Emitted when the allowance of a `spender` for an `owner` is set by a call to {approve}. `value` is the new allowance."
      },
      "Paused(address)": {
        "details": "Emitted when the pause is triggered by `account`."
      },
      "RoleAdminChanged(bytes32,bytes32,bytes32)": {
        "details": "Emitted when `newAdminRole` is set as ``role``'s admin role, replacing `previousAdminRole` `DEFAULT_ADMIN_ROLE` is the starting admin for all roles, despite {RoleAdminChanged} not being emitted to signal this."
      },
      "RoleGranted(bytes32,address,address)": {
        "details": "Emitted when `account` is granted `role`. `sender` is the account that originated the contract call. This account bears the admin role (for the granted role). Expected in cases where the role was granted using the internal {AccessControl-_grantRole}."
      },
      "RoleRevoked(bytes32,address,address)": {
        "details": "Emitted when `account` is revoked `role`. `sender` is the account that originated the contract call:   - if using `revokeRole`, it is the admin role bearer   - if using `renounceRole`, it is the role bearer (i.e. `account`)"
      },
      "Transfer(address,address,uint256)": {
        "details": "Emitted when `value` tokens are moved from one account (`from`) to another (`to`). Note that `value` may be zero."
      },
      "Unpaused(address)": {
        "details": "Emitted when the pause is lifted by `account`."
      }
    },
    "kind": "dev",
    "methods": {
      "allowance(address,address)": {
        "details": "Returns the remaining number of tokens that `spender` will be allowed to spend on behalf of `owner` through {transferFrom}. This is zero by default. This value changes when {approve} or {transferFrom} are called."
      },
      "approve(address,uint256)": {
        "details": "See {IERC20-approve}. NOTE: If `value` is the maximum `uint256`, the allowance is not updated on `transferFrom`. This is semantically equivalent to an infinite approval. Requirements: - `spender` cannot be the zero address."
      },
      "balanceOf(address)": {
        "details": "Returns the value of tokens owned by `account`."
      },
      "decimals()": {
        "details": "Returns the number of decimals used to get its user representation. For example, if `decimals` equals `2`, a balance of `505` tokens should be displayed to a user as `5.05` (`505 / 10 ** 2`). Tokens usually opt for a value of 18, imitating the relationship between Ether and Wei. This is the default value returned by this function, unless it's overridden. NOTE: This information is only used for _display_ purposes: it in no way affects any of the arithmetic of the contract, including {IERC20-balanceOf} and {IERC20-transfer}."
      },
      "getRoleAdmin(bytes32)": {
        "details": "Returns the admin role that controls `role`. See {grantRole} and {revokeRole}. To change a role's admin, use {_setRoleAdmin}."
      },
      "grantRole(bytes32,address)": {
        "details": "Grants `role` to `account`. If `account` had not been already granted `role`, emits a {RoleGranted} event. Requirements: - the caller must have ``role``'s admin role. May emit a {RoleGranted} event."
      },
      "hasRole(bytes32,address)": {
        "details": "Returns `true` if `account` has been granted `role`."
      },
      "name()": {
        "details": "Returns the name of the token."
      },
      "paused()": {
        "details": "Returns true if the contract is paused, and false otherwise."
      },
      "renounceRole(bytes32,address)": {
        "details": "Revokes `role` from the calling account. Roles are often managed via {grantRole} and {revokeRole}: this function's purpose is to provide a mechanism for accounts to lose their privileges if they are compromised (such as when a trusted device is misplaced). If the calling account had been revoked `role`, emits a {RoleRevoked} event. Requirements: - the caller must be `callerConfirmation`. May emit a {RoleRevoked} event."
      },
      "revokeRole(bytes32,address)": {
        "details": "Revokes `role` from `account`. If `account` had been granted `role`, emits a {RoleRevoked} event. Requirements: - the caller must have ``role``'s admin role. May emit a {RoleRevoked} event."
      },
      "supportsInterface(bytes4)": {
        "details": "Returns true if this contract implements the interface defined by `interfaceId`. See the corresponding https://eips.ethereum.org/EIPS/eip-165#how-interfaces-are-identified[ERC section] to learn more about how these ids are created. This function call must use less than 30 000 gas."
      },
      "symbol()": {
        "details": "Returns the symbol of the token, usually a shorter version of the name."
      },
      "totalSupply()": {
        "details": "Returns the value of tokens in existence."
      },
      "transfer(address,uint256)": {
        "details": "See {IERC20-transfer}. Requirements: - `to` cannot be the zero address. - the caller must have a balance of at least `value`."
      },
      "transferFrom(address,address,uint256)": {
        "details": "See {IERC20-transferFrom}. Skips emitting an {Approval} event indicating an allowance update. This is not required by the ERC. See {xref-ERC20-_approve-address-address-uint256-bool-}[_approve]. NOTE: Does not update the allowance if the current allowance is the maximum `uint256`. Requirements: - `from` and `to` cannot be the zero address. - `from` must have a balance of at least `value`. - the caller must have allowance for ``from``'s tokens of at least `value`."
      }
    },
    "version": 1
  },
  "userdoc": {
    "kind": "user",
    "methods": {},
    "version": 1
  }
}